{
  "contractName": "DonationToken",
  "abi": [
    {
      "inputs": [
        {
          "internalType": "string",
          "name": "_name",
          "type": "string"
        },
        {
          "internalType": "string",
          "name": "_symbol",
          "type": "string"
        }
      ],
      "stateMutability": "nonpayable",
      "type": "constructor"
    },
    {
      "anonymous": false,
      "inputs": [
        {
          "indexed": true,
          "internalType": "address",
          "name": "owner",
          "type": "address"
        },
        {
          "indexed": true,
          "internalType": "address",
          "name": "spender",
          "type": "address"
        },
        {
          "indexed": false,
          "internalType": "uint256",
          "name": "value",
          "type": "uint256"
        }
      ],
      "name": "Approval",
      "type": "event"
    },
    {
      "anonymous": false,
      "inputs": [
        {
          "indexed": true,
          "internalType": "address",
          "name": "donor",
          "type": "address"
        },
        {
          "indexed": true,
          "internalType": "address",
          "name": "receiver",
          "type": "address"
        },
        {
          "indexed": false,
          "internalType": "uint256",
          "name": "value",
          "type": "uint256"
        },
        {
          "indexed": false,
          "internalType": "uint256",
          "name": "date",
          "type": "uint256"
        }
      ],
      "name": "Donation",
      "type": "event"
    },
    {
      "anonymous": false,
      "inputs": [
        {
          "indexed": true,
          "internalType": "address",
          "name": "from",
          "type": "address"
        },
        {
          "indexed": true,
          "internalType": "address",
          "name": "to",
          "type": "address"
        },
        {
          "indexed": false,
          "internalType": "uint256",
          "name": "value",
          "type": "uint256"
        }
      ],
      "name": "Transfer",
      "type": "event"
    },
    {
      "inputs": [
        {
          "internalType": "address",
          "name": "",
          "type": "address"
        },
        {
          "internalType": "address",
          "name": "",
          "type": "address"
        }
      ],
      "name": "allowance",
      "outputs": [
        {
          "internalType": "uint256",
          "name": "",
          "type": "uint256"
        }
      ],
      "stateMutability": "view",
      "type": "function"
    },
    {
      "inputs": [
        {
          "internalType": "address",
          "name": "",
          "type": "address"
        }
      ],
      "name": "balanceOf",
      "outputs": [
        {
          "internalType": "uint256",
          "name": "",
          "type": "uint256"
        }
      ],
      "stateMutability": "view",
      "type": "function"
    },
    {
      "inputs": [],
      "name": "decimals",
      "outputs": [
        {
          "internalType": "uint8",
          "name": "",
          "type": "uint8"
        }
      ],
      "stateMutability": "view",
      "type": "function"
    },
    {
      "inputs": [],
      "name": "name",
      "outputs": [
        {
          "internalType": "string",
          "name": "",
          "type": "string"
        }
      ],
      "stateMutability": "view",
      "type": "function"
    },
    {
      "inputs": [],
      "name": "owner",
      "outputs": [
        {
          "internalType": "address",
          "name": "",
          "type": "address"
        }
      ],
      "stateMutability": "view",
      "type": "function"
    },
    {
      "inputs": [],
      "name": "symbol",
      "outputs": [
        {
          "internalType": "string",
          "name": "",
          "type": "string"
        }
      ],
      "stateMutability": "view",
      "type": "function"
    },
    {
      "inputs": [],
      "name": "totalSupply",
      "outputs": [
        {
          "internalType": "uint256",
          "name": "",
          "type": "uint256"
        }
      ],
      "stateMutability": "view",
      "type": "function"
    },
    {
      "inputs": [
        {
          "internalType": "address",
          "name": "_to",
          "type": "address"
        },
        {
          "internalType": "uint256",
          "name": "_value",
          "type": "uint256"
        }
      ],
      "name": "transfer",
      "outputs": [
        {
          "internalType": "bool",
          "name": "success",
          "type": "bool"
        }
      ],
      "stateMutability": "nonpayable",
      "type": "function"
    },
    {
      "inputs": [
        {
          "internalType": "address",
          "name": "_spender",
          "type": "address"
        },
        {
          "internalType": "uint256",
          "name": "_value",
          "type": "uint256"
        }
      ],
      "name": "approve",
      "outputs": [
        {
          "internalType": "bool",
          "name": "success",
          "type": "bool"
        }
      ],
      "stateMutability": "nonpayable",
      "type": "function"
    },
    {
      "inputs": [
        {
          "internalType": "address",
          "name": "_from",
          "type": "address"
        },
        {
          "internalType": "address",
          "name": "_to",
          "type": "address"
        },
        {
          "internalType": "uint256",
          "name": "_value",
          "type": "uint256"
        }
      ],
      "name": "transferFrom",
      "outputs": [
        {
          "internalType": "bool",
          "name": "success",
          "type": "bool"
        }
      ],
      "stateMutability": "nonpayable",
      "type": "function"
    },
    {
      "inputs": [
        {
          "internalType": "address",
          "name": "_receiver",
          "type": "address"
        },
        {
          "internalType": "uint256",
          "name": "_value",
          "type": "uint256"
        },
        {
          "internalType": "uint256",
          "name": "_date",
          "type": "uint256"
        }
      ],
      "name": "donate",
      "outputs": [
        {
          "internalType": "bool",
          "name": "success",
          "type": "bool"
        }
      ],
      "stateMutability": "nonpayable",
      "type": "function"
    },
    {
      "inputs": [
        {
          "internalType": "address",
          "name": "_to",
          "type": "address"
        },
        {
          "internalType": "uint256",
          "name": "_amount",
          "type": "uint256"
        }
      ],
      "name": "mint",
      "outputs": [],
      "stateMutability": "nonpayable",
      "type": "function"
    }
  ],
  "bytecode": "0x60806040526012600260006101000a81548160ff021916908360ff1602179055503480156200002d57600080fd5b5060405162001a2b38038062001a2b833981810160405281019062000053919062000253565b816000908162000064919062000523565b50806001908162000076919062000523565b5033600660006101000a81548173ffffffffffffffffffffffffffffffffffffffff021916908373ffffffffffffffffffffffffffffffffffffffff16021790555050506200060a565b6000604051905090565b600080fd5b600080fd5b600080fd5b600080fd5b6000601f19601f8301169050919050565b7f4e487b7100000000000000000000000000000000000000000000000000000000600052604160045260246000fd5b6200012982620000de565b810181811067ffffffffffffffff821117156200014b576200014a620000ef565b5b80604052505050565b600062000160620000c0565b90506200016e82826200011e565b919050565b600067ffffffffffffffff821115620001915762000190620000ef565b5b6200019c82620000de565b9050602081019050919050565b60005b83811015620001c9578082015181840152602081019050620001ac565b60008484015250505050565b6000620001ec620001e68462000173565b62000154565b9050828152602081018484840111156200020b576200020a620000d9565b5b62000218848285620001a9565b509392505050565b600082601f830112620002385762000237620000d4565b5b81516200024a848260208601620001d5565b91505092915050565b600080604083850312156200026d576200026c620000ca565b5b600083015167ffffffffffffffff8111156200028e576200028d620000cf565b5b6200029c8582860162000220565b925050602083015167ffffffffffffffff811115620002c057620002bf620000cf565b5b620002ce8582860162000220565b9150509250929050565b600081519050919050565b7f4e487b7100000000000000000000000000000000000000000000000000000000600052602260045260246000fd5b600060028204905060018216806200032b57607f821691505b602082108103620003415762000340620002e3565b5b50919050565b60008190508160005260206000209050919050565b60006020601f8301049050919050565b600082821b905092915050565b600060088302620003ab7fffffffffffffffffffffffffffffffffffffffffffffffffffffffffffffffff826200036c565b620003b786836200036c565b95508019841693508086168417925050509392505050565b6000819050919050565b6000819050919050565b600062000404620003fe620003f884620003cf565b620003d9565b620003cf565b9050919050565b6000819050919050565b6200042083620003e3565b620004386200042f826200040b565b84845462000379565b825550505050565b600090565b6200044f62000440565b6200045c81848462000415565b505050565b5b8181101562000484576200047860008262000445565b60018101905062000462565b5050565b601f821115620004d3576200049d8162000347565b620004a8846200035c565b81016020851015620004b8578190505b620004d0620004c7856200035c565b83018262000461565b50505b505050565b600082821c905092915050565b6000620004f860001984600802620004d8565b1980831691505092915050565b6000620005138383620004e5565b9150826002028217905092915050565b6200052e82620002d8565b67ffffffffffffffff8111156200054a5762000549620000ef565b5b62000556825462000312565b6200056382828562000488565b600060209050601f8311600181146200059b576000841562000586578287015190505b62000592858262000505565b86555062000602565b601f198416620005ab8662000347565b60005b82811015620005d557848901518255600182019150602085019450602081019050620005ae565b86831015620005f55784890151620005f1601f891682620004e5565b8355505b6001600288020188555050505b505050505050565b611411806200061a6000396000f3fe608060405234801561001057600080fd5b50600436106100b45760003560e01c806370a082311161007157806370a082311461018f5780638da5cb5b146101bf57806395d89b41146101dd578063a9059cbb146101fb578063d46322761461022b578063dd62ed3e1461025b576100b4565b806306fdde03146100b9578063095ea7b3146100d757806318160ddd1461010757806323b872dd14610125578063313ce5671461015557806340c10f1914610173575b600080fd5b6100c161028b565b6040516100ce9190610d09565b60405180910390f35b6100f160048036038101906100ec9190610dc4565b610319565b6040516100fe9190610e1f565b60405180910390f35b61010f61040b565b60405161011c9190610e49565b60405180910390f35b61013f600480360381019061013a9190610e64565b610411565b60405161014c9190610e1f565b60405180910390f35b61015d61057b565b60405161016a9190610ed3565b60405180910390f35b61018d60048036038101906101889190610dc4565b61058e565b005b6101a960048036038101906101a49190610eee565b6106f7565b6040516101b69190610e49565b60405180910390f35b6101c761070f565b6040516101d49190610f2a565b60405180910390f35b6101e5610735565b6040516101f29190610d09565b60405180910390f35b61021560048036038101906102109190610dc4565b6107c3565b6040516102229190610e1f565b60405180910390f35b61024560048036038101906102409190610f45565b6107da565b6040516102529190610e1f565b60405180910390f35b61027560048036038101906102709190610f98565b610859565b6040516102829190610e49565b60405180910390f35b6000805461029890611007565b80601f01602080910402602001604051908101604052809291908181526020018280546102c490611007565b80156103115780601f106102e657610100808354040283529160200191610311565b820191906000526020600020905b8154815290600101906020018083116102f457829003601f168201915b505050505081565b600081600560003373ffffffffffffffffffffffffffffffffffffffff1673ffffffffffffffffffffffffffffffffffffffff16815260200190815260200160002060008573ffffffffffffffffffffffffffffffffffffffff1673ffffffffffffffffffffffffffffffffffffffff168152602001908152602001600020819055508273ffffffffffffffffffffffffffffffffffffffff163373ffffffffffffffffffffffffffffffffffffffff167f8c5be1e5ebec7d5bd14f71427d1e84f3dd0314c0f7b2291e5b200ac8c7c3b925846040516103f99190610e49565b60405180910390a36001905092915050565b60035481565b6000600560008573ffffffffffffffffffffffffffffffffffffffff1673ffffffffffffffffffffffffffffffffffffffff16815260200190815260200160002060003373ffffffffffffffffffffffffffffffffffffffff1673ffffffffffffffffffffffffffffffffffffffff168152602001908152602001600020548211156104d2576040517f08c379a00000000000000000000000000000000000000000000000000000000081526004016104c9906110aa565b60405180910390fd5b81600560008673ffffffffffffffffffffffffffffffffffffffff1673ffffffffffffffffffffffffffffffffffffffff16815260200190815260200160002060003373ffffffffffffffffffffffffffffffffffffffff1673ffffffffffffffffffffffffffffffffffffffff168152602001908152602001600020600082825461055e91906110f9565b9250508190555061057084848461087e565b600190509392505050565b600260009054906101000a900460ff1681565b600660009054906101000a900473ffffffffffffffffffffffffffffffffffffffff1673ffffffffffffffffffffffffffffffffffffffff163373ffffffffffffffffffffffffffffffffffffffff161461061e576040517f08c379a00000000000000000000000000000000000000000000000000000000081526004016106159061119f565b60405180910390fd5b806003600082825461063091906111bf565b9250508190555080600460008473ffffffffffffffffffffffffffffffffffffffff1673ffffffffffffffffffffffffffffffffffffffff168152602001908152602001600020600082825461068691906111bf565b925050819055508173ffffffffffffffffffffffffffffffffffffffff16600073ffffffffffffffffffffffffffffffffffffffff167fddf252ad1be2c89b69c2b068fc378daa952ba7f163c4a11628f55a4df523b3ef836040516106eb9190610e49565b60405180910390a35050565b60046020528060005260406000206000915090505481565b600660009054906101000a900473ffffffffffffffffffffffffffffffffffffffff1681565b6001805461074290611007565b80601f016020809104026020016040519081016040528092919081815260200182805461076e90611007565b80156107bb5780601f10610790576101008083540402835291602001916107bb565b820191906000526020600020905b81548152906001019060200180831161079e57829003601f168201915b505050505081565b60006107d033848461087e565b6001905092915050565b60006107e733858561087e565b8373ffffffffffffffffffffffffffffffffffffffff163373ffffffffffffffffffffffffffffffffffffffff167f9a3ad7d1530a1c9e215f59a73425f48c5798be3c0e70009388bf37dc616e2ac885856040516108469291906111f3565b60405180910390a3600190509392505050565b6005602052816000526040600020602052806000526040600020600091509150505481565b600073ffffffffffffffffffffffffffffffffffffffff168273ffffffffffffffffffffffffffffffffffffffff16036108ed576040517f08c379a00000000000000000000000000000000000000000000000000000000081526004016108e49061128e565b60405180910390fd5b80600460008573ffffffffffffffffffffffffffffffffffffffff1673ffffffffffffffffffffffffffffffffffffffff16815260200190815260200160002054101561096f576040517f08c379a000000000000000000000000000000000000000000000000000000000815260040161096690611320565b60405180910390fd5b600460008373ffffffffffffffffffffffffffffffffffffffff1673ffffffffffffffffffffffffffffffffffffffff1681526020019081526020016000205481600460008573ffffffffffffffffffffffffffffffffffffffff1673ffffffffffffffffffffffffffffffffffffffff168152602001908152602001600020546109fa91906111bf565b1015610a3b576040517f08c379a0000000000000000000000000000000000000000000000000000000008152600401610a329061138c565b60405180910390fd5b6000600460008473ffffffffffffffffffffffffffffffffffffffff1673ffffffffffffffffffffffffffffffffffffffff16815260200190815260200160002054600460008673ffffffffffffffffffffffffffffffffffffffff1673ffffffffffffffffffffffffffffffffffffffff16815260200190815260200160002054610ac791906111bf565b905081600460008673ffffffffffffffffffffffffffffffffffffffff1673ffffffffffffffffffffffffffffffffffffffff1681526020019081526020016000206000828254610b1891906110f9565b9250508190555081600460008573ffffffffffffffffffffffffffffffffffffffff1673ffffffffffffffffffffffffffffffffffffffff1681526020019081526020016000206000828254610b6e91906111bf565b925050819055508273ffffffffffffffffffffffffffffffffffffffff168473ffffffffffffffffffffffffffffffffffffffff167fddf252ad1be2c89b69c2b068fc378daa952ba7f163c4a11628f55a4df523b3ef84604051610bd29190610e49565b60405180910390a380600460008573ffffffffffffffffffffffffffffffffffffffff1673ffffffffffffffffffffffffffffffffffffffff16815260200190815260200160002054600460008773ffffffffffffffffffffffffffffffffffffffff1673ffffffffffffffffffffffffffffffffffffffff16815260200190815260200160002054610c6591906111bf565b14610c7357610c726113ac565b5b50505050565b600081519050919050565b600082825260208201905092915050565b60005b83811015610cb3578082015181840152602081019050610c98565b60008484015250505050565b6000601f19601f8301169050919050565b6000610cdb82610c79565b610ce58185610c84565b9350610cf5818560208601610c95565b610cfe81610cbf565b840191505092915050565b60006020820190508181036000830152610d238184610cd0565b905092915050565b600080fd5b600073ffffffffffffffffffffffffffffffffffffffff82169050919050565b6000610d5b82610d30565b9050919050565b610d6b81610d50565b8114610d7657600080fd5b50565b600081359050610d8881610d62565b92915050565b6000819050919050565b610da181610d8e565b8114610dac57600080fd5b50565b600081359050610dbe81610d98565b92915050565b60008060408385031215610ddb57610dda610d2b565b5b6000610de985828601610d79565b9250506020610dfa85828601610daf565b9150509250929050565b60008115159050919050565b610e1981610e04565b82525050565b6000602082019050610e346000830184610e10565b92915050565b610e4381610d8e565b82525050565b6000602082019050610e5e6000830184610e3a565b92915050565b600080600060608486031215610e7d57610e7c610d2b565b5b6000610e8b86828701610d79565b9350506020610e9c86828701610d79565b9250506040610ead86828701610daf565b9150509250925092565b600060ff82169050919050565b610ecd81610eb7565b82525050565b6000602082019050610ee86000830184610ec4565b92915050565b600060208284031215610f0457610f03610d2b565b5b6000610f1284828501610d79565b91505092915050565b610f2481610d50565b82525050565b6000602082019050610f3f6000830184610f1b565b92915050565b600080600060608486031215610f5e57610f5d610d2b565b5b6000610f6c86828701610d79565b9350506020610f7d86828701610daf565b9250506040610f8e86828701610daf565b9150509250925092565b60008060408385031215610faf57610fae610d2b565b5b6000610fbd85828601610d79565b9250506020610fce85828601610d79565b9150509250929050565b7f4e487b7100000000000000000000000000000000000000000000000000000000600052602260045260246000fd5b6000600282049050600182168061101f57607f821691505b60208210810361103257611031610fd8565b5b50919050565b7f45524332303a207472616e7366657220616d6f756e742065786365656473206160008201527f6c6c6f77616e6365000000000000000000000000000000000000000000000000602082015250565b6000611094602883610c84565b915061109f82611038565b604082019050919050565b600060208201905081810360008301526110c381611087565b9050919050565b7f4e487b7100000000000000000000000000000000000000000000000000000000600052601160045260246000fd5b600061110482610d8e565b915061110f83610d8e565b9250828203905081811115611127576111266110ca565b5b92915050565b7f4f6e6c7920746865206f776e65722063616e2063616c6c20746869732066756e60008201527f6374696f6e2e0000000000000000000000000000000000000000000000000000602082015250565b6000611189602683610c84565b91506111948261112d565b604082019050919050565b600060208201905081810360008301526111b88161117c565b9050919050565b60006111ca82610d8e565b91506111d583610d8e565b92508282019050808211156111ed576111ec6110ca565b5b92915050565b60006040820190506112086000830185610e3a565b6112156020830184610e3a565b9392505050565b7f45524332303a207472616e7366657220746f20746865207a65726f206164647260008201527f6573730000000000000000000000000000000000000000000000000000000000602082015250565b6000611278602383610c84565b91506112838261121c565b604082019050919050565b600060208201905081810360008301526112a78161126b565b9050919050565b7f45524332303a207472616e7366657220616d6f756e742065786365656473206260008201527f616c616e63650000000000000000000000000000000000000000000000000000602082015250565b600061130a602683610c84565b9150611315826112ae565b604082019050919050565b60006020820190508181036000830152611339816112fd565b9050919050565b7f45524332303a207472616e73666572206f766572666c6f770000000000000000600082015250565b6000611376601883610c84565b915061138182611340565b602082019050919050565b600060208201905081810360008301526113a581611369565b9050919050565b7f4e487b7100000000000000000000000000000000000000000000000000000000600052600160045260246000fdfea26469706673582212204dacc10973d0f683c29899e8b1d4d1ecffcc8eedf027c1ddd1b2ae7d3f064d0764736f6c63430008130033",
  "immutableReferences": {},
  "source": "// SPDX-License-Identifier: MIT\r\npragma solidity ^0.8.0;\r\n\r\ncontract DonationToken {\r\n    string public name;\r\n    string public symbol;\r\n    uint8 public decimals = 18; // 18 decimals is the standard\r\n    uint256 public totalSupply;\r\n    mapping(address => uint256) public balanceOf;\r\n    mapping(address => mapping(address => uint256)) public allowance;\r\n\r\n    address public owner;\r\n\r\n    event Transfer(address indexed from, address indexed to, uint256 value);\r\n    event Approval(\r\n        address indexed owner,\r\n        address indexed spender,\r\n        uint256 value\r\n    );\r\n\r\n    event Donation(\r\n        address indexed donor,\r\n        address indexed receiver,\r\n        uint256 value,\r\n        uint256 date\r\n    );\r\n\r\n    constructor(string memory _name, string memory _symbol) {\r\n        name = _name;\r\n        symbol = _symbol;\r\n        owner = msg.sender;\r\n    }\r\n\r\n    modifier onlyOwner() {\r\n        require(msg.sender == owner, \"Only the owner can call this function.\");\r\n        _;\r\n    }\r\n\r\n    function _transfer(address _from, address _to, uint256 _value) internal {\r\n        require(_to != address(0), \"ERC20: transfer to the zero address\");\r\n        require(\r\n            balanceOf[_from] >= _value,\r\n            \"ERC20: transfer amount exceeds balance\"\r\n        );\r\n        require(\r\n            balanceOf[_to] + _value >= balanceOf[_to],\r\n            \"ERC20: transfer overflow\"\r\n        );\r\n        uint256 previousBalances = balanceOf[_from] + balanceOf[_to];\r\n        balanceOf[_from] -= _value;\r\n        balanceOf[_to] += _value;\r\n        emit Transfer(_from, _to, _value);\r\n        assert(balanceOf[_from] + balanceOf[_to] == previousBalances);\r\n    }\r\n\r\n    function transfer(\r\n        address _to,\r\n        uint256 _value\r\n    ) public returns (bool success) {\r\n        _transfer(msg.sender, _to, _value);\r\n        return true;\r\n    }\r\n\r\n    function approve(\r\n        address _spender,\r\n        uint256 _value\r\n    ) public returns (bool success) {\r\n        allowance[msg.sender][_spender] = _value;\r\n        emit Approval(msg.sender, _spender, _value);\r\n        return true;\r\n    }\r\n\r\n    function transferFrom(\r\n        address _from,\r\n        address _to,\r\n        uint256 _value\r\n    ) public returns (bool success) {\r\n        require(\r\n            _value <= allowance[_from][msg.sender],\r\n            \"ERC20: transfer amount exceeds allowance\"\r\n        );\r\n        allowance[_from][msg.sender] -= _value;\r\n        _transfer(_from, _to, _value);\r\n        return true;\r\n    }\r\n\r\n    function donate(\r\n        address _receiver,\r\n        uint256 _value,\r\n        uint256 _date\r\n    ) public returns (bool success) {\r\n        _transfer(msg.sender, _receiver, _value);\r\n        emit Donation(msg.sender, _receiver, _value, _date);\r\n        return true;\r\n    }\r\n\r\n    function mint(address _to, uint256 _amount) public onlyOwner {\r\n        totalSupply += _amount;\r\n        balanceOf[_to] += _amount;\r\n        emit Transfer(address(0), _to, _amount);\r\n    }\r\n}\r\n",
  "sourcePath": "C:\\SMARTDEEDS\\DonationToken.sol",
  "compiler": {
    "name": "solc",
    "version": "0.8.19+commit.7dd6d404.Emscripten.clang"
  },
  "schemaVersion": "3.4.13",
  "updatedAt": "2023-05-16T01:33:05.595Z",
  "devdoc": {
    "kind": "dev",
    "methods": {},
    "version": 1
  },
  "userdoc": {
    "kind": "user",
    "methods": {},
    "version": 1
  }
}